:100000000C942A000C9483020C94AC020C94D5023C
:100010000C9447000C9447000C941D040C94CB03E3
:100020000C94F4030C94A2030C9447000C94470026
:100030000C9447000C9481040C9447000C94AA047F
:100040000C9447000C9447000C9447000C94470014
:100050000C94470011241FBECFE5D8E0DEBFCDBF12
:1000600010E0A0E6B0E0EEEEF9E002C005900D92DF
:10007000A838B107D9F720E0A8E8B0E001C01D9288
:10008000AA39B207E1F70E94DA000C94F5040C9447
:10009000000062E083E00E94FE0262E083E00E94D2
:1000A000310380E30E94280380EC0E94940380E3E4
:1000B0000E949B030895CF93C82F60E081E00E94C7
:1000C000FE01C4FB662760F983E00E94FE01C5FBC8
:1000D000662760F984E00E94FE01C6FB662760F98E
:1000E00085E00E94FE016C2F661F6627661F86E072
:1000F0000E94FE0161E082E00E94FE018FEC97E029
:100100000197F1F700C0000060E082E00E94FE016C
:100110008FEC97E00197F1F700C000006C2F617041
:1001200083E00E94FE01C1FB662760F984E00E9423
:10013000FE01C2FB662760F985E00E94FE01C3FB59
:10014000662760F986E00E94FE0161E082E00E947D
:10015000FE018FEC97E00197F1F700C0000060E02E
:1001600082E00E94FE018FEC97E00197F1F700C05A
:100170000000CF9108952FEF89EF90E0215080404B
:100180009040E1F700C0000082E00E945B0088E23E
:100190000E945B008CE00E945B0081E00E945B009B
:1001A0008FEC97E00197F1F700C0000086E00E9415
:1001B0005B0008950E94EE010E94BB000E9449006E
:1001C0000E944604C1E68C2F0E947D042FEF81EE31
:1001D00094E0215080409040E1F700C00000CF5FE4
:1001E000F2CF982F9695969596958770613009F481
:1001F00055C020F0623009F4A1C008959130C1F0DB
:1002000028F0923039F19330B9F108954AB321E0E2
:1002100030E0B90102C0660F771F8A95E2F7CB0183
:10022000942F982B9ABB9BB3809589238BBB089501
:1002300047B321E030E0B90102C0660F771F8A950D
:10024000E2F7CB01942F982B97BB98B38095892325
:1002500088BB089544B321E030E0B90102C0660FC5
:10026000771F8A95E2F7CB01942F982B94BB95B317
:100270008095892385BB089541B321E030E0B90121
:1002800002C0660F771F8A95E2F7CB01942F982B57
:1002900091BB92B38095892382BB08959130C1F0C0
:1002A00028F0923039F19330B9F108954AB321E042
:1002B00030E0B90102C0660F771F8A95E2F7CB01E3
:1002C0008095942F98239ABB9BB389238BBB089569
:1002D00047B321E030E0B90102C0660F771F8A956D
:1002E000E2F7CB018095942F982397BB98B389238D
:1002F00088BB089544B321E030E0B90102C0660F25
:10030000771F8A95E2F7CB018095942F982394BBB1
:1003100095B3892385BB089541B321E030E0B9014D
:1003200002C0660F771F8A95E2F7CB018095942F64
:10033000982391BB92B3892382BB08959130C1F079
:1003400028F0923039F19330B9F108954AB321E0A1
:1003500030E0B90102C0660F771F8A95E2F7CB0142
:10036000962F909594239ABB9BB3892B8BBB0895B2
:1003700047B321E030E0B90102C0660F771F8A95CC
:10038000E2F7CB01962F9095942397BB98B3892BD6
:1003900088BB089544B321E030E0B90102C0660F84
:1003A000771F8A95E2F7CB01962F9095942394BB03
:1003B00095B3892B85BB089541B321E030E0B901A5
:1003C00002C0660F771F8A95E2F7CB01962F9095B2
:1003D000942391BB92B3892B82BB0895CF93C0E045
:1003E00009C0EC2FF0E0E05AFF4F60818C2F0E9493
:1003F000F100CF5FC032A8F3CF910895982F969562
:100400009695969587706130E1F5913099F028F0D6
:100410009230E9F0933041F108954BB321E030E0A0
:10042000B90102C0660F771F8A95E2F7CB01842BD2
:100430008BBB089548B321E030E0B90102C0660FDC
:10044000771F8A95E2F7CB01842B88BB089545B3CB
:1004500021E030E0B90102C0660F771F8A95E2F70C
:10046000CB01842B85BB089542B321E030E0B90174
:1004700002C0660F771F8A95E2F7CB01842B82BBFF
:10048000089561113FC09130A1F028F09230F9F049
:10049000933059F108954BB321E030E0B90102C027
:1004A000660F771F8A95E2F7CB01809584238BBB7B
:1004B000089548B321E030E0B90102C0660F771F0C
:1004C0008A95E2F7CB018095842388BB089545B3D4
:1004D00021E030E0B90102C0660F771F8A95E2F78C
:1004E000CB018095842385BB089542B321E030E0A1
:1004F000B90102C0660F771F8A95E2F7CB0180959C
:10050000842382BB08951F920F920FB60F9211247D
:100510002F933F934F935F936F937F938F939F930B
:10052000AF93BF93EF93FF93E0918800F091890020
:10053000309709F00995FF91EF91BF91AF919F918D
:100540008F917F916F915F914F913F912F910F907C
:100550000FBE0F901F9018951F920F920FB60F921B
:1005600011242F933F934F935F936F937F938F93B8
:100570009F93AF93BF93EF93FF93E0918A00F09125
:100580008B00309709F00995FF91EF91BF91AF91E2
:100590009F918F917F916F915F914F913F912F919B
:1005A0000F900FBE0F901F9018951F920F920FB6CD
:1005B0000F9211242F933F934F935F936F937F93E9
:1005C0008F939F93AF93BF93EF93FF93E0918C0032
:1005D000F0918D00309709F00995FF91EF91BF914F
:1005E000AF919F918F917F916F915F914F913F91CB
:1005F0002F910F900FBE0F901F901895813069F0CA
:1006000028F0823089F08330B1F01BC083B78F7B34
:1006100083BF83B7877F83BF14C083B7806483BFE2
:1006200083B7877F83BF0DC083B78F7B83BF83B7BB
:10063000886083BF06C083B7806483BF83B7886048
:1006400083BF83B7887F83BF83B7682B63BF089559
:10065000813330F493B79F7C93BF93B7892B83BFCB
:100660000895823039F128F4882351F08130A9F0BF
:1006700054C08430C9F158F1853009F442C04DC0EE
:100680008FB58E7F8FBD8FB58D7F8FBD8EB5877FE8
:100690008EBD8EB58F7E8EBD40C08FB58E7F8FBDD7
:1006A0008FB58D7F8FBD8EB588608EBD8EB5806114
:1006B0008EBD33C08FB58E7F8FBD8FB58D7F8FBDC3
:1006C0008EB588608EBD8EB58F7E8EBD26C08FB5EF
:1006D00081608FBD8FB58D7F8FBD8EB588608EBDDB
:1006E0008EB58F7E8EBD19C08FB58E7F8FBD8FB5B5
:1006F00082608FBD8EB588608EBD8EB580618EBDE7
:100700000CC08FB581608FBD8FB582608FBD8EB5F7
:1007100088608EBD8EB580618EBD8EB5887F8EBDA2
:100720008EB5682B6EBD08959FB59F739FBD9FB515
:10073000892B8FBD08959FB59F7C9FBD9FB5892B49
:100740008FBD08951F920F920FB60F9211242F9311
:100750003F934F935F936F937F938F939F93AF9349
:10076000BF93EF93FF93E0918E00F0918F0030974D
:1007700009F00995FF91EF91BF91AF919F918F91F2
:100780007F916F915F914F913F912F910F900FBE8D
:100790000F901F9018951F920F920FB60F92112471
:1007A0002F933F934F935F936F937F938F939F9379
:1007B000AF93BF93EF93FF93E0919000F09191007E
:1007C000309709F00995FF91EF91BF91AF919F91FB
:1007D0008F917F916F915F914F913F912F910F90EA
:1007E0000FBE0F901F9018951F920F920FB60F9289
:1007F00011242F933F934F935F936F937F938F9326
:100800009F93AF93BF93EF93FF93E0919200F0918A
:100810009300309709F00995FF91EF91BF91AF9147
:100820009F918F917F916F915F914F913F912F9108
:100830000F900FBE0F901F9018951F920F920FB63A
:100840000F9211242F933F934F935F936F937F9356
:100850008F939F93AF93BF93EF93FF93E091940097
:10086000F0919500309709F00995FF91EF91BF91B4
:10087000AF919F918F917F916F915F914F913F9138
:100880002F910F900FBE0F901F901895CF93DF936D
:10089000C0E8D0E088819981AA81BB81880F991F27
:1008A000AA1FBB1F880F991FAA1FBB1F9C01AD0168
:1008B000220F331F441F551F220F331F441F551F84
:1008C00060E072E18AE790E00E94D3042150310990
:1008D00030BD29B92C818D819E81822B892B806826
:1008E00080BD8BB18D7F8BB98AB188608AB98AB19E
:1008F00080618AB9DF91CF9108955D9BFECF8CB95D
:1009000008951F920F920FB60F9211242F933F93C9
:100910004F935F936F937F938F939F93AF93BF9307
:10092000EF93FF93E0919800F0919900309709F0D0
:100930000995FF91EF91BF91AF919F918F917F9119
:100940006F915F914F913F912F910F900FBE0F903C
:100950001F9018951F920F920FB60F9211242F938C
:100960003F934F935F936F937F938F939F93AF9337
:10097000BF93EF93FF93E0919600F091970030972B
:1009800009F00995FF91EF91BF91AF919F918F91E0
:100990007F916F915F914F913F912F910F900FBE7B
:1009A0000F901F901895A1E21A2EAA1BBB1BFD01E8
:1009B0000DC0AA1FBB1FEE1FFF1FA217B307E4073E
:1009C000F50720F0A21BB30BE40BF50B661F771F96
:1009D000881F991F1A9469F7609570958095909576
:0E09E0009B01AC01BD01CF010895F894FFCF3B
:1009EE0001000000000000010000000000000000F7
:1009FE0000000000000000000100020200000000E4
:080A0E00802500000600000035
:00000001FF
